{
  "contractName": "Car",
  "abi": [
    {
      "constant": true,
      "inputs": [],
      "name": "a1",
      "outputs": [
        {
          "name": "vinNo",
          "type": "string"
        },
        {
          "name": "owner",
          "type": "address"
        }
      ],
      "payable": false,
      "stateMutability": "view",
      "type": "function"
    },
    {
      "constant": true,
      "inputs": [],
      "name": "balance",
      "outputs": [
        {
          "name": "",
          "type": "uint256"
        }
      ],
      "payable": false,
      "stateMutability": "view",
      "type": "function"
    },
    {
      "constant": true,
      "inputs": [],
      "name": "bidTime",
      "outputs": [
        {
          "name": "",
          "type": "uint256"
        }
      ],
      "payable": false,
      "stateMutability": "view",
      "type": "function"
    },
    {
      "inputs": [
        {
          "name": "owner",
          "type": "address"
        },
        {
          "name": "_vinNo",
          "type": "string"
        }
      ],
      "payable": false,
      "stateMutability": "nonpayable",
      "type": "constructor"
    },
    {
      "anonymous": false,
      "inputs": [
        {
          "indexed": false,
          "name": "time",
          "type": "uint256"
        },
        {
          "indexed": false,
          "name": "previousOwner",
          "type": "address"
        }
      ],
      "name": "sellCarEvent",
      "type": "event"
    },
    {
      "anonymous": false,
      "inputs": [
        {
          "indexed": false,
          "name": "time",
          "type": "uint256"
        },
        {
          "indexed": false,
          "name": "serviceCenter",
          "type": "address"
        }
      ],
      "name": "serviceCarEvent",
      "type": "event"
    },
    {
      "anonymous": false,
      "inputs": [
        {
          "indexed": false,
          "name": "time",
          "type": "uint256"
        },
        {
          "indexed": false,
          "name": "bTime",
          "type": "uint256"
        }
      ],
      "name": "trySellEvent",
      "type": "event"
    },
    {
      "constant": false,
      "inputs": [
        {
          "name": "base",
          "type": "uint256"
        },
        {
          "name": "time",
          "type": "uint256"
        }
      ],
      "name": "trySell",
      "outputs": [],
      "payable": false,
      "stateMutability": "nonpayable",
      "type": "function"
    },
    {
      "constant": false,
      "inputs": [
        {
          "name": "newOwner",
          "type": "address"
        }
      ],
      "name": "sell",
      "outputs": [],
      "payable": false,
      "stateMutability": "nonpayable",
      "type": "function"
    },
    {
      "constant": false,
      "inputs": [],
      "name": "buy",
      "outputs": [],
      "payable": true,
      "stateMutability": "payable",
      "type": "function"
    },
    {
      "constant": false,
      "inputs": [],
      "name": "cashBack",
      "outputs": [],
      "payable": false,
      "stateMutability": "nonpayable",
      "type": "function"
    },
    {
      "constant": false,
      "inputs": [],
      "name": "service",
      "outputs": [],
      "payable": false,
      "stateMutability": "nonpayable",
      "type": "function"
    },
    {
      "constant": true,
      "inputs": [],
      "name": "returnBidders",
      "outputs": [
        {
          "name": "_bidders",
          "type": "address[]"
        },
        {
          "name": "_length",
          "type": "uint256"
        }
      ],
      "payable": false,
      "stateMutability": "view",
      "type": "function"
    }
  ],
  "bytecode": "0x608060405234801561001057600080fd5b50604051610c42380380610c428339810180604052604081101561003357600080fd5b8101908080519060200190929190805164010000000081111561005557600080fd5b8281019050602081018481111561006b57600080fd5b815185600182028301116401000000008211171561008857600080fd5b505092919050505080600360000190805190602001906100a99291906100f5565b5081600360010160006101000a81548173ffffffffffffffffffffffffffffffffffffffff021916908373ffffffffffffffffffffffffffffffffffffffff160217905550505061019a565b828054600181600116156101000203166002900490600052602060002090601f016020900481019282601f1061013657805160ff1916838001178555610164565b82800160010185558215610164579182015b82811115610163578251825591602001919060010190610148565b5b5090506101719190610175565b5090565b61019791905b8082111561019357600081600090555060010161017b565b5090565b90565b610a99806101a96000396000f3fe608060405260043610610099576000357c0100000000000000000000000000000000000000000000000000000000900463ffffffff16806302f4ec611461009e578063119552a1146100b5578063734753731461017857806394b6f9d4146101bd578063a6f2ae3a1461020e578063b69ef8a814610218578063c120d93114610243578063d598d4c91461026e578063ee74077114610285575b600080fd5b3480156100aa57600080fd5b506100b36102f8565b005b3480156100c157600080fd5b506100ca61042b565b60405180806020018373ffffffffffffffffffffffffffffffffffffffff1673ffffffffffffffffffffffffffffffffffffffff168152602001828103825284818151815260200191508051906020019080838360005b8381101561013c578082015181840152602081019050610121565b50505050905090810190601f1680156101695780820380516001836020036101000a031916815260200191505b50935050505060405180910390f35b34801561018457600080fd5b506101bb6004803603604081101561019b57600080fd5b8101908080359060200190929190803590602001909291905050506104f5565b005b3480156101c957600080fd5b5061020c600480360360208110156101e057600080fd5b81019080803573ffffffffffffffffffffffffffffffffffffffff1690602001909291905050506105ac565b005b610216610827565b005b34801561022457600080fd5b5061022d610903565b6040518082815260200191505060405180910390f35b34801561024f57600080fd5b50610258610909565b6040518082815260200191505060405180910390f35b34801561027a57600080fd5b5061028361090f565b005b34801561029157600080fd5b5061029a6109d4565b6040518080602001838152602001828103825284818151815260200191508051906020019060200280838360005b838110156102e35780820151818401526020810190506102c8565b50505050905001935050505060405180910390f35b6000600660003373ffffffffffffffffffffffffffffffffffffffff1673ffffffffffffffffffffffffffffffffffffffff168152602001908152602001600020541415151561034757600080fd5b6000600660003373ffffffffffffffffffffffffffffffffffffffff1673ffffffffffffffffffffffffffffffffffffffff16815260200190815260200160002054905060003390508073ffffffffffffffffffffffffffffffffffffffff166108fc839081150290604051600060405180830381858888f193505050501580156103d6573d6000803e3d6000fd5b5081600154036001819055506000600660008373ffffffffffffffffffffffffffffffffffffffff1673ffffffffffffffffffffffffffffffffffffffff168152602001908152602001600020819055505050565b6003806000018054600181600116156101000203166002900480601f0160208091040260200160405190810160405280929190818152602001828054600181600116156101000203166002900480156104c55780601f1061049a576101008083540402835291602001916104c5565b820191906000526020600020905b8154815290600101906020018083116104a857829003601f168201915b5050505050908060010160009054906101000a900473ffffffffffffffffffffffffffffffffffffffff16905082565b600360010160009054906101000a900473ffffffffffffffffffffffffffffffffffffffff1673ffffffffffffffffffffffffffffffffffffffff163373ffffffffffffffffffffffffffffffffffffffff1614151561055457600080fd5b7ffdb2396e6a96db09abecebbb6bc3314a7a098267690f7447d1d0a027d50dde0442600254604051808381526020018281526020019250505060405180910390a181600081905550603c810242016002819055505050565b600360010160009054906101000a900473ffffffffffffffffffffffffffffffffffffffff1673ffffffffffffffffffffffffffffffffffffffff163373ffffffffffffffffffffffffffffffffffffffff1614151561060b57600080fd5b6000600660008373ffffffffffffffffffffffffffffffffffffffff1673ffffffffffffffffffffffffffffffffffffffff168152602001908152602001600020541415151561065a57600080fd5b7f53bb3d78670699e326657e74a37b9bedba8bd83d29f75905278384621a9e995d42600360010160009054906101000a900473ffffffffffffffffffffffffffffffffffffffff16604051808381526020018273ffffffffffffffffffffffffffffffffffffffff1673ffffffffffffffffffffffffffffffffffffffff1681526020019250505060405180910390a16000600660008373ffffffffffffffffffffffffffffffffffffffff1673ffffffffffffffffffffffffffffffffffffffff168152602001908152602001600020549050600360010160009054906101000a900473ffffffffffffffffffffffffffffffffffffffff1673ffffffffffffffffffffffffffffffffffffffff166108fc829081150290604051600060405180830381858888f19350505050158015610799573d6000803e3d6000fd5b5081600360010160006101000a81548173ffffffffffffffffffffffffffffffffffffffff021916908373ffffffffffffffffffffffffffffffffffffffff1602179055506000600660008473ffffffffffffffffffffffffffffffffffffffff1673ffffffffffffffffffffffffffffffffffffffff168152602001908152602001600020819055505050565b6002544210151561083757600080fd5b6000543411151561084757600080fd5b34600660003373ffffffffffffffffffffffffffffffffffffffff1673ffffffffffffffffffffffffffffffffffffffff168152602001908152602001600020819055503460016000828254019250508190555060053390806001815401808255809150509060018203906000526020600020016000909192909190916101000a81548173ffffffffffffffffffffffffffffffffffffffff021916908373ffffffffffffffffffffffffffffffffffffffff16021790555050565b60015481565b60025481565b600760003373ffffffffffffffffffffffffffffffffffffffff1673ffffffffffffffffffffffffffffffffffffffff16815260200190815260200160002060009054906101000a900460ff16151561096757600080fd5b7f168b34ce333a81d4d72639ed498c755350c1e611a206f137bed06e7e77e62dad4233604051808381526020018273ffffffffffffffffffffffffffffffffffffffff1673ffffffffffffffffffffffffffffffffffffffff1681526020019250505060405180910390a1565b606060006005805480602002602001604051908101604052809291908181526020018280548015610a5a57602002820191906000526020600020905b8160009054906101000a900473ffffffffffffffffffffffffffffffffffffffff1673ffffffffffffffffffffffffffffffffffffffff1681526020019060010190808311610a10575b505050505091506005805490509050909156fea165627a7a72305820320c88baa88cfe8837bfd411116f83379cf2bfa5f14badc1c20b1ec47820d9c40029",
  "source": "pragma solidity ^0.5.0;\n\ncontract Car {\n    uint price;\n    \n    struct ownerInfo {\n        string vinNo;\n        address payable owner;\n        \n    }\n    \n    uint public balance;\n    uint public bidTime;\n    ownerInfo public a1;\n    \n    address [] bidders;\n    mapping(address=>uint) bids;\n    mapping(address=>bool) serviceCenterAdd;\n    //events\n    event sellCarEvent(uint time , address previousOwner);\n    event serviceCarEvent(uint time , address serviceCenter);\n    event trySellEvent(uint time,uint bTime);\n    \n    constructor (address payable owner,string memory _vinNo) public{\n        a1.vinNo = _vinNo;\n        a1.owner = owner;\n        \n    }\n    modifier onlyOwner{\n        require(msg.sender == a1.owner);\n        _;\n    }\n    \n    modifier buyFn{\n        require(msg.value>price);\n        _;\n    }\n    \n    function trySell(uint base,uint time) public onlyOwner {\n        emit trySellEvent(now,bidTime);\n        price = base;\n        bidTime = now + time*1 minutes;\n    }\n    \n    \n    \n    function sell(address payable newOwner) public onlyOwner{\n        \n        require(bids[newOwner] != 0);\n        emit sellCarEvent (now , a1.owner);\n        uint bid = bids[newOwner];\n        // address payable owner = a1.owner;\n        a1.owner.transfer(bid);\n        a1.owner = newOwner;\n        bids[newOwner] = 0;\n        \n        \n        \n        \n        \n    }\n    function buy() payable public {\n        require(now<bidTime);\n        require(msg.value>price);\n        bids[msg.sender]= msg.value;\n        balance += msg.value;\n        bidders.push(msg.sender);\n        \n    }\n    \n    function cashBack() public {\n        require(bids[msg.sender] != 0);\n        uint bid = bids[msg.sender];\n        address payable oneBid = msg.sender;\n        oneBid.transfer(bid);\n        balance=balance-bid;\n        bids[oneBid] = 0;\n        \n        \n    }\n    function service() public {\n        require(serviceCenterAdd[msg.sender]);\n        emit serviceCarEvent(now,msg.sender);\n        \n        \n    }\n    function returnBidders() public view returns(address [] memory _bidders,uint _length ){\n        _bidders =  bidders;\n        _length =  bidders.length;\n    }\n}",
  "sourcePath": "/home/mycomputer/Desktop/ced_pro/try_pro/contracts/Car.sol",
  "compiler": {
    "name": "solc",
    "version": "0.5.0+commit.1d4f565a.Emscripten.clang"
  },
  "schemaVersion": "3.0.6",
  "updatedAt": "2019-04-26T08:10:17.940Z",
  "devdoc": {
    "methods": {}
  },
  "userdoc": {
    "methods": {}
  }
}