{
  "contractName": "newCar",
  "abi": [
    {
      "inputs": [],
      "payable": false,
      "stateMutability": "nonpayable",
      "type": "constructor",
      "signature": "constructor"
    },
    {
      "anonymous": false,
      "inputs": [
        {
          "indexed": false,
          "name": "time",
          "type": "uint256"
        },
        {
          "indexed": false,
          "name": "bidTime",
          "type": "uint256"
        },
        {
          "indexed": false,
          "name": "bid",
          "type": "uint256"
        }
      ],
      "name": "sell",
      "type": "event",
      "signature": "0xd3c9727c91c16142ba7e6538b8ca32daa13aeb22c7aa00fe824c0ee09e8240ba"
    },
    {
      "anonymous": false,
      "inputs": [
        {
          "indexed": false,
          "name": "ownerAddress",
          "type": "address"
        },
        {
          "indexed": false,
          "name": "vinNo",
          "type": "string"
        }
      ],
      "name": "enterCar",
      "type": "event",
      "signature": "0xd2ea228056b98fe3cd2d5ef8c3722236e1d472140201d8d8a69fcbe4be403661"
    },
    {
      "constant": false,
      "inputs": [
        {
          "name": "_vinNo",
          "type": "string"
        }
      ],
      "name": "enterNewCar",
      "outputs": [],
      "payable": false,
      "stateMutability": "nonpayable",
      "type": "function",
      "signature": "0xf1d2f466"
    },
    {
      "constant": true,
      "inputs": [
        {
          "name": "i",
          "type": "address"
        }
      ],
      "name": "getOwnerInfo",
      "outputs": [
        {
          "name": "",
          "type": "address[]"
        }
      ],
      "payable": false,
      "stateMutability": "view",
      "type": "function",
      "signature": "0xd385de82"
    },
    {
      "constant": false,
      "inputs": [
        {
          "name": "exOwner",
          "type": "address"
        },
        {
          "name": "newOwner",
          "type": "address"
        },
        {
          "name": "index",
          "type": "uint256"
        },
        {
          "name": "carAddress",
          "type": "address"
        }
      ],
      "name": "changeOwner",
      "outputs": [],
      "payable": false,
      "stateMutability": "nonpayable",
      "type": "function",
      "signature": "0x4c3060fd"
    },
    {
      "constant": false,
      "inputs": [
        {
          "name": "_salesTime",
          "type": "uint256"
        },
        {
          "name": "_basePrice",
          "type": "uint256"
        },
        {
          "name": "index",
          "type": "uint256"
        },
        {
          "name": "carAddress",
          "type": "address"
        }
      ],
      "name": "onSales",
      "outputs": [],
      "payable": false,
      "stateMutability": "nonpayable",
      "type": "function",
      "signature": "0xfbdeaabd"
    }
  ],
  "bytecode": "0x608060405234801561001057600080fd5b50611932806100206000396000f3fe608060405260043610610062576000357c0100000000000000000000000000000000000000000000000000000000900463ffffffff1680634c3060fd14610067578063d385de8214610102578063f1d2f466146101a8578063fbdeaabd14610270575b600080fd5b34801561007357600080fd5b506101006004803603608081101561008a57600080fd5b81019080803573ffffffffffffffffffffffffffffffffffffffff169060200190929190803573ffffffffffffffffffffffffffffffffffffffff16906020019092919080359060200190929190803573ffffffffffffffffffffffffffffffffffffffff1690602001909291905050506102df565b005b34801561010e57600080fd5b506101516004803603602081101561012557600080fd5b81019080803573ffffffffffffffffffffffffffffffffffffffff1690602001909291905050506104bc565b6040518080602001828103825283818151815260200191508051906020019060200280838360005b83811015610194578082015181840152602081019050610179565b505050509050019250505060405180910390f35b3480156101b457600080fd5b5061026e600480360360208110156101cb57600080fd5b81019080803590602001906401000000008111156101e857600080fd5b8201836020820111156101fa57600080fd5b8035906020019184600183028401116401000000008311171561021c57600080fd5b91908080601f016020809104026020016040519081016040528093929190818152602001838380828437600081840152601f19601f820116905080830192505050505050509192919290505050610588565b005b34801561027c57600080fd5b506102dd6004803603608081101561029357600080fd5b81019080803590602001909291908035906020019092919080359060200190929190803573ffffffffffffffffffffffffffffffffffffffff1690602001909291905050506107cb565b005b8073ffffffffffffffffffffffffffffffffffffffff166000803373ffffffffffffffffffffffffffffffffffffffff1673ffffffffffffffffffffffffffffffffffffffff1681526020019081526020016000208381548110151561034157fe5b9060005260206000200160009054906101000a900473ffffffffffffffffffffffffffffffffffffffff1673ffffffffffffffffffffffffffffffffffffffff1614151561038e57600080fd5b60008060008673ffffffffffffffffffffffffffffffffffffffff1673ffffffffffffffffffffffffffffffffffffffff168152602001908152602001600020838154811015156103db57fe5b9060005260206000200160009054906101000a900473ffffffffffffffffffffffffffffffffffffffff16905061041285846108cc565b506000808573ffffffffffffffffffffffffffffffffffffffff1673ffffffffffffffffffffffffffffffffffffffff1681526020019081526020016000208190806001815401808255809150509060018203906000526020600020016000909192909190916101000a81548173ffffffffffffffffffffffffffffffffffffffff021916908373ffffffffffffffffffffffffffffffffffffffff160217905550505050505050565b60606000808373ffffffffffffffffffffffffffffffffffffffff1673ffffffffffffffffffffffffffffffffffffffff16815260200190815260200160002080548060200260200160405190810160405280929190818152602001828054801561057c57602002820191906000526020600020905b8160009054906101000a900473ffffffffffffffffffffffffffffffffffffffff1673ffffffffffffffffffffffffffffffffffffffff1681526020019060010190808311610532575b50505050509050919050565b60003382610594610c63565b808373ffffffffffffffffffffffffffffffffffffffff1673ffffffffffffffffffffffffffffffffffffffff16815260200180602001828103825283818151815260200191508051906020019080838360005b838110156106035780820151818401526020810190506105e8565b50505050905090810190601f1680156106305780820380516001836020036101000a031916815260200191505b509350505050604051809103906000f080158015610652573d6000803e3d6000fd5b5090506000803373ffffffffffffffffffffffffffffffffffffffff1673ffffffffffffffffffffffffffffffffffffffff1681526020019081526020016000208190806001815401808255809150509060018203906000526020600020016000909192909190916101000a81548173ffffffffffffffffffffffffffffffffffffffff021916908373ffffffffffffffffffffffffffffffffffffffff160217905550507fd2ea228056b98fe3cd2d5ef8c3722236e1d472140201d8d8a69fcbe4be4036613383604051808373ffffffffffffffffffffffffffffffffffffffff1673ffffffffffffffffffffffffffffffffffffffff16815260200180602001828103825283818151815260200191508051906020019080838360005b8381101561078c578082015181840152602081019050610771565b50505050905090810190601f1680156107b95780820380516001836020036101000a031916815260200191505b50935050505060405180910390a15050565b8073ffffffffffffffffffffffffffffffffffffffff166000803373ffffffffffffffffffffffffffffffffffffffff1673ffffffffffffffffffffffffffffffffffffffff1681526020019081526020016000208381548110151561082d57fe5b9060005260206000200160009054906101000a900473ffffffffffffffffffffffffffffffffffffffff1673ffffffffffffffffffffffffffffffffffffffff1614151561087a57600080fd5b7fd3c9727c91c16142ba7e6538b8ca32daa13aeb22c7aa00fe824c0ee09e8240ba42603c860242018560405180848152602001838152602001828152602001935050505060405180910390a150505050565b60606000808473ffffffffffffffffffffffffffffffffffffffff1673ffffffffffffffffffffffffffffffffffffffff16815260200190815260200160002080549050821115151561091e57600080fd5b60008290505b60016000808673ffffffffffffffffffffffffffffffffffffffff1673ffffffffffffffffffffffffffffffffffffffff1681526020019081526020016000208054905003811015610a89576000808573ffffffffffffffffffffffffffffffffffffffff1673ffffffffffffffffffffffffffffffffffffffff168152602001908152602001600020600182018154811015156109be57fe5b9060005260206000200160009054906101000a900473ffffffffffffffffffffffffffffffffffffffff166000808673ffffffffffffffffffffffffffffffffffffffff1673ffffffffffffffffffffffffffffffffffffffff16815260200190815260200160002082815481101515610a3457fe5b9060005260206000200160006101000a81548173ffffffffffffffffffffffffffffffffffffffff021916908373ffffffffffffffffffffffffffffffffffffffff1602179055508080600101915050610924565b506000808473ffffffffffffffffffffffffffffffffffffffff1673ffffffffffffffffffffffffffffffffffffffff16815260200190815260200160002060016000808673ffffffffffffffffffffffffffffffffffffffff1673ffffffffffffffffffffffffffffffffffffffff1681526020019081526020016000208054905003815481101515610b1957fe5b9060005260206000200160006101000a81549073ffffffffffffffffffffffffffffffffffffffff02191690556000808473ffffffffffffffffffffffffffffffffffffffff1673ffffffffffffffffffffffffffffffffffffffff168152602001908152602001600020805480919060019003610b979190610c73565b506000808473ffffffffffffffffffffffffffffffffffffffff1673ffffffffffffffffffffffffffffffffffffffff168152602001908152602001600020805480602002602001604051908101604052809291908181526020018280548015610c5657602002820191906000526020600020905b8160009054906101000a900473ffffffffffffffffffffffffffffffffffffffff1673ffffffffffffffffffffffffffffffffffffffff1681526020019060010190808311610c0c575b5050505050905092915050565b604051610c4280610cc583390190565b815481835581811115610c9a57818360005260206000209182019101610c999190610c9f565b5b505050565b610cc191905b80821115610cbd576000816000905550600101610ca5565b5090565b9056fe608060405234801561001057600080fd5b50604051610c42380380610c428339810180604052604081101561003357600080fd5b8101908080519060200190929190805164010000000081111561005557600080fd5b8281019050602081018481111561006b57600080fd5b815185600182028301116401000000008211171561008857600080fd5b505092919050505080600360000190805190602001906100a99291906100f5565b5081600360010160006101000a81548173ffffffffffffffffffffffffffffffffffffffff021916908373ffffffffffffffffffffffffffffffffffffffff160217905550505061019a565b828054600181600116156101000203166002900490600052602060002090601f016020900481019282601f1061013657805160ff1916838001178555610164565b82800160010185558215610164579182015b82811115610163578251825591602001919060010190610148565b5b5090506101719190610175565b5090565b61019791905b8082111561019357600081600090555060010161017b565b5090565b90565b610a99806101a96000396000f3fe608060405260043610610099576000357c0100000000000000000000000000000000000000000000000000000000900463ffffffff16806302f4ec611461009e578063119552a1146100b5578063734753731461017857806394b6f9d4146101bd578063a6f2ae3a1461020e578063b69ef8a814610218578063c120d93114610243578063d598d4c91461026e578063ee74077114610285575b600080fd5b3480156100aa57600080fd5b506100b36102f8565b005b3480156100c157600080fd5b506100ca61042b565b60405180806020018373ffffffffffffffffffffffffffffffffffffffff1673ffffffffffffffffffffffffffffffffffffffff168152602001828103825284818151815260200191508051906020019080838360005b8381101561013c578082015181840152602081019050610121565b50505050905090810190601f1680156101695780820380516001836020036101000a031916815260200191505b50935050505060405180910390f35b34801561018457600080fd5b506101bb6004803603604081101561019b57600080fd5b8101908080359060200190929190803590602001909291905050506104f5565b005b3480156101c957600080fd5b5061020c600480360360208110156101e057600080fd5b81019080803573ffffffffffffffffffffffffffffffffffffffff1690602001909291905050506105ac565b005b610216610827565b005b34801561022457600080fd5b5061022d610903565b6040518082815260200191505060405180910390f35b34801561024f57600080fd5b50610258610909565b6040518082815260200191505060405180910390f35b34801561027a57600080fd5b5061028361090f565b005b34801561029157600080fd5b5061029a6109d4565b6040518080602001838152602001828103825284818151815260200191508051906020019060200280838360005b838110156102e35780820151818401526020810190506102c8565b50505050905001935050505060405180910390f35b6000600660003373ffffffffffffffffffffffffffffffffffffffff1673ffffffffffffffffffffffffffffffffffffffff168152602001908152602001600020541415151561034757600080fd5b6000600660003373ffffffffffffffffffffffffffffffffffffffff1673ffffffffffffffffffffffffffffffffffffffff16815260200190815260200160002054905060003390508073ffffffffffffffffffffffffffffffffffffffff166108fc839081150290604051600060405180830381858888f193505050501580156103d6573d6000803e3d6000fd5b5081600154036001819055506000600660008373ffffffffffffffffffffffffffffffffffffffff1673ffffffffffffffffffffffffffffffffffffffff168152602001908152602001600020819055505050565b6003806000018054600181600116156101000203166002900480601f0160208091040260200160405190810160405280929190818152602001828054600181600116156101000203166002900480156104c55780601f1061049a576101008083540402835291602001916104c5565b820191906000526020600020905b8154815290600101906020018083116104a857829003601f168201915b5050505050908060010160009054906101000a900473ffffffffffffffffffffffffffffffffffffffff16905082565b600360010160009054906101000a900473ffffffffffffffffffffffffffffffffffffffff1673ffffffffffffffffffffffffffffffffffffffff163373ffffffffffffffffffffffffffffffffffffffff1614151561055457600080fd5b7ffdb2396e6a96db09abecebbb6bc3314a7a098267690f7447d1d0a027d50dde0442600254604051808381526020018281526020019250505060405180910390a181600081905550603c810242016002819055505050565b600360010160009054906101000a900473ffffffffffffffffffffffffffffffffffffffff1673ffffffffffffffffffffffffffffffffffffffff163373ffffffffffffffffffffffffffffffffffffffff1614151561060b57600080fd5b6000600660008373ffffffffffffffffffffffffffffffffffffffff1673ffffffffffffffffffffffffffffffffffffffff168152602001908152602001600020541415151561065a57600080fd5b7f53bb3d78670699e326657e74a37b9bedba8bd83d29f75905278384621a9e995d42600360010160009054906101000a900473ffffffffffffffffffffffffffffffffffffffff16604051808381526020018273ffffffffffffffffffffffffffffffffffffffff1673ffffffffffffffffffffffffffffffffffffffff1681526020019250505060405180910390a16000600660008373ffffffffffffffffffffffffffffffffffffffff1673ffffffffffffffffffffffffffffffffffffffff168152602001908152602001600020549050600360010160009054906101000a900473ffffffffffffffffffffffffffffffffffffffff1673ffffffffffffffffffffffffffffffffffffffff166108fc829081150290604051600060405180830381858888f19350505050158015610799573d6000803e3d6000fd5b5081600360010160006101000a81548173ffffffffffffffffffffffffffffffffffffffff021916908373ffffffffffffffffffffffffffffffffffffffff1602179055506000600660008473ffffffffffffffffffffffffffffffffffffffff1673ffffffffffffffffffffffffffffffffffffffff168152602001908152602001600020819055505050565b6002544210151561083757600080fd5b6000543411151561084757600080fd5b34600660003373ffffffffffffffffffffffffffffffffffffffff1673ffffffffffffffffffffffffffffffffffffffff168152602001908152602001600020819055503460016000828254019250508190555060053390806001815401808255809150509060018203906000526020600020016000909192909190916101000a81548173ffffffffffffffffffffffffffffffffffffffff021916908373ffffffffffffffffffffffffffffffffffffffff16021790555050565b60015481565b60025481565b600760003373ffffffffffffffffffffffffffffffffffffffff1673ffffffffffffffffffffffffffffffffffffffff16815260200190815260200160002060009054906101000a900460ff16151561096757600080fd5b7f168b34ce333a81d4d72639ed498c755350c1e611a206f137bed06e7e77e62dad4233604051808381526020018273ffffffffffffffffffffffffffffffffffffffff1673ffffffffffffffffffffffffffffffffffffffff1681526020019250505060405180910390a1565b606060006005805480602002602001604051908101604052809291908181526020018280548015610a5a57602002820191906000526020600020905b8160009054906101000a900473ffffffffffffffffffffffffffffffffffffffff1673ffffffffffffffffffffffffffffffffffffffff1681526020019060010190808311610a10575b505050505091506005805490509050909156fea165627a7a72305820320c88baa88cfe8837bfd411116f83379cf2bfa5f14badc1c20b1ec47820d9c40029a165627a7a72305820dd95634863af9d16d08c50ae34070bda1334f249b257a254728e612543aa63210029",
  "source": "pragma solidity ^0.5.0; \nimport './Car.sol';\n\ncontract newCar{\n    mapping(address=>Car[]) carRecords;\n    // struct carArray{\n    //     Car[]\n    // }\n    // Car[] deployedCarAddress; \n    \n    event sell(uint time,uint bidTime,uint bid);\n    event enterCar( address ownerAddress,string vinNo);\n    constructor() public{\n        \n    }\n    \n\n    \n    //Enter a new car record\n    function enterNewCar(string memory _vinNo) public {\n        Car newCarD = new Car(msg.sender,_vinNo);\n        carRecords[msg.sender].push(newCarD);\n        emit enterCar(msg.sender,_vinNo);\n        \n    }\n    \n    \n    function getOwnerInfo(address i) public view returns (Car [] memory){\n        return carRecords[i];\n    }\n    function changeOwner(address exOwner,address newOwner,uint index,Car carAddress) public {\n        require(carRecords[msg.sender][index]==carAddress);\n        Car vehicle = carRecords[exOwner][index];\n        remove(exOwner,index);\n        // delete carRecords[exOwner][index];\n        \n        carRecords[newOwner].push(vehicle);\n        \n    }\n    function remove(address oldOwner,uint index) internal returns(Car[]memory) {\n        require(index<=carRecords[oldOwner].length);\n    \n        for (uint i = index; i<carRecords[oldOwner].length-1; i++){\n            carRecords[oldOwner][i] =carRecords[oldOwner][i+1];\n        }\n        delete carRecords[oldOwner][carRecords[oldOwner].length-1];\n        carRecords[oldOwner].length--;\n        return  carRecords[oldOwner];\n    }    \n    function onSales(uint _salesTime , uint _basePrice,uint index,Car carAddress) public {\n        require(carRecords[msg.sender][index]==carAddress);\n        emit sell(now,now+(_salesTime*1 minutes),_basePrice);\n    }\n    \n}",
  "sourcePath": "/home/mycomputer/Desktop/ced_pro/try_pro/contracts/newCar.sol",
  "compiler": {
    "name": "solc",
    "version": "0.5.0+commit.1d4f565a.Emscripten.clang"
  },
  "schemaVersion": "3.0.6",
  "updatedAt": "2019-04-26T08:34:45.155Z",
  "devdoc": {
    "methods": {}
  },
  "userdoc": {
    "methods": {}
  }
}